{
  "_format": "hh-sol-artifact-1",
  "contractName": "Lottery",
  "sourceName": "contracts/lotteryContract.sol",
  "abi": [
    {
      "inputs": [],
      "stateMutability": "nonpayable",
      "type": "constructor"
    },
    {
      "inputs": [],
      "name": "Winner",
      "outputs": [
        {
          "internalType": "address payable",
          "name": "",
          "type": "address"
        }
      ],
      "stateMutability": "view",
      "type": "function"
    },
    {
      "inputs": [
        {
          "internalType": "uint256",
          "name": "",
          "type": "uint256"
        }
      ],
      "name": "_playersList",
      "outputs": [
        {
          "internalType": "address payable",
          "name": "",
          "type": "address"
        }
      ],
      "stateMutability": "view",
      "type": "function"
    },
    {
      "inputs": [],
      "name": "getBalance",
      "outputs": [
        {
          "internalType": "uint256",
          "name": "",
          "type": "uint256"
        }
      ],
      "stateMutability": "view",
      "type": "function"
    },
    {
      "inputs": [],
      "name": "owner",
      "outputs": [
        {
          "internalType": "address",
          "name": "",
          "type": "address"
        }
      ],
      "stateMutability": "view",
      "type": "function"
    },
    {
      "inputs": [],
      "name": "pickWinner",
      "outputs": [],
      "stateMutability": "nonpayable",
      "type": "function"
    },
    {
      "inputs": [],
      "name": "play",
      "outputs": [],
      "stateMutability": "payable",
      "type": "function"
    }
  ],
  "bytecode": "0x6080604052348015600f57600080fd5b50336000806101000a81548173ffffffffffffffffffffffffffffffffffffffff021916908373ffffffffffffffffffffffffffffffffffffffff1602179055506109ef8061005f6000396000f3fe6080604052600436106100555760003560e01c806312065fe01461005a5780631d45dc4c146100855780635d495aea146100c25780638da5cb5b146100d957806393e84cd914610104578063b2b98ed21461010e575b600080fd5b34801561006657600080fd5b5061006f610139565b60405161007c9190610637565b60405180910390f35b34801561009157600080fd5b506100ac60048036038101906100a79190610683565b6101cf565b6040516100b991906106f1565b60405180910390f35b3480156100ce57600080fd5b506100d761020e565b005b3480156100e557600080fd5b506100ee61047e565b6040516100fb919061072d565b60405180910390f35b61010c6104a2565b005b34801561011a57600080fd5b50610123610551565b60405161013091906106f1565b60405180910390f35b60003373ffffffffffffffffffffffffffffffffffffffff1660008054906101000a900473ffffffffffffffffffffffffffffffffffffffff1673ffffffffffffffffffffffffffffffffffffffff16146101c9576040517f08c379a00000000000000000000000000000000000000000000000000000000081526004016101c0906107a5565b60405180910390fd5b47905090565b600181815481106101df57600080fd5b906000526020600020016000915054906101000a900473ffffffffffffffffffffffffffffffffffffffff1681565b3373ffffffffffffffffffffffffffffffffffffffff1660008054906101000a900473ffffffffffffffffffffffffffffffffffffffff1673ffffffffffffffffffffffffffffffffffffffff161461029c576040517f08c379a0000000000000000000000000000000000000000000000000000000008152600401610293906107a5565b60405180910390fd5b600360018054905010156102e5576040517f08c379a00000000000000000000000000000000000000000000000000000000081526004016102dc90610811565b60405180910390fd5b6000600180549050444260018054905060405160200161030793929190610852565b6040516020818303038152906040528051906020012060001c61032a91906108be565b9050600181815481106103405761033f6108ef565b5b9060005260206000200160009054906101000a900473ffffffffffffffffffffffffffffffffffffffff16600260006101000a81548173ffffffffffffffffffffffffffffffffffffffff021916908373ffffffffffffffffffffffffffffffffffffffff160217905550600260009054906101000a900473ffffffffffffffffffffffffffffffffffffffff1673ffffffffffffffffffffffffffffffffffffffff166108fc6103ef610139565b9081150290604051600060405180830381858888f1935050505015801561041a573d6000803e3d6000fd5b50600067ffffffffffffffff8111156104365761043561091e565b5b6040519080825280602002602001820160405280156104645781602001602082028036833780820191505090505b506001908051906020019061047a929190610577565b5050565b60008054906101000a900473ffffffffffffffffffffffffffffffffffffffff1681565b670de0b6b3a764000034146104ec576040517f08c379a00000000000000000000000000000000000000000000000000000000081526004016104e390610999565b60405180910390fd5b6001339080600181540180825580915050600190039060005260206000200160009091909190916101000a81548173ffffffffffffffffffffffffffffffffffffffff021916908373ffffffffffffffffffffffffffffffffffffffff160217905550565b600260009054906101000a900473ffffffffffffffffffffffffffffffffffffffff1681565b8280548282559060005260206000209081019282156105f0579160200282015b828111156105ef5782518260006101000a81548173ffffffffffffffffffffffffffffffffffffffff021916908373ffffffffffffffffffffffffffffffffffffffff16021790555091602001919060010190610597565b5b5090506105fd9190610601565b5090565b5b8082111561061a576000816000905550600101610602565b5090565b6000819050919050565b6106318161061e565b82525050565b600060208201905061064c6000830184610628565b92915050565b600080fd5b6106608161061e565b811461066b57600080fd5b50565b60008135905061067d81610657565b92915050565b60006020828403121561069957610698610652565b5b60006106a78482850161066e565b91505092915050565b600073ffffffffffffffffffffffffffffffffffffffff82169050919050565b60006106db826106b0565b9050919050565b6106eb816106d0565b82525050565b600060208201905061070660008301846106e2565b92915050565b6000610717826106b0565b9050919050565b6107278161070c565b82525050565b6000602082019050610742600083018461071e565b92915050565b600082825260208201905092915050565b7f796f7520617265206e6f7420746865206f776e65722e00000000000000000000600082015250565b600061078f601683610748565b915061079a82610759565b602082019050919050565b600060208201905081810360008301526107be81610782565b9050919050565b7f4e6f7420656e6f75676820706c61796572732e00000000000000000000000000600082015250565b60006107fb601383610748565b9150610806826107c5565b602082019050919050565b6000602082019050818103600083015261082a816107ee565b9050919050565b6000819050919050565b61084c6108478261061e565b610831565b82525050565b600061085e828661083b565b60208201915061086e828561083b565b60208201915061087e828461083b565b602082019150819050949350505050565b7f4e487b7100000000000000000000000000000000000000000000000000000000600052601260045260246000fd5b60006108c98261061e565b91506108d48361061e565b9250826108e4576108e361088f565b5b828206905092915050565b7f4e487b7100000000000000000000000000000000000000000000000000000000600052603260045260246000fd5b7f4e487b7100000000000000000000000000000000000000000000000000000000600052604160045260246000fd5b7f506c656173652070617920312065746865722e00000000000000000000000000600082015250565b6000610983601383610748565b915061098e8261094d565b602082019050919050565b600060208201905081810360008301526109b281610976565b905091905056fea26469706673582212206006ec17df9a19cd77283ac834a66365c3744a03f6d5c4ad181db5d5f81a404f64736f6c634300081c0033",
  "linkReferences": {},
  "deployedLinkReferences": {}
}